{
  "contractName": "MixerContract",
  "abi": [
    {
      "constant": true,
      "inputs": [],
      "name": "amt",
      "outputs": [
        {
          "name": "",
          "type": "uint256"
        }
      ],
      "payable": false,
      "stateMutability": "view",
      "type": "function"
    },
    {
      "constant": true,
      "inputs": [
        {
          "name": "",
          "type": "address"
        }
      ],
      "name": "sessions",
      "outputs": [
        {
          "name": "arrivedAmount",
          "type": "uint256"
        },
        {
          "name": "timeOut",
          "type": "uint256"
        }
      ],
      "payable": false,
      "stateMutability": "view",
      "type": "function"
    },
    {
      "inputs": [
        {
          "name": "mixedAmt",
          "type": "uint256"
        }
      ],
      "payable": false,
      "stateMutability": "nonpayable",
      "type": "constructor"
    },
    {
      "constant": false,
      "inputs": [
        {
          "name": "A",
          "type": "address"
        }
      ],
      "name": "sendDirtyCoins",
      "outputs": [],
      "payable": true,
      "stateMutability": "payable",
      "type": "function"
    },
    {
      "constant": false,
      "inputs": [
        {
          "name": "A",
          "type": "address"
        },
        {
          "name": "P",
          "type": "address[]"
        },
        {
          "name": "v",
          "type": "uint8"
        },
        {
          "name": "r",
          "type": "bytes32"
        },
        {
          "name": "s",
          "type": "bytes32"
        }
      ],
      "name": "payOutCleanCoins",
      "outputs": [],
      "payable": false,
      "stateMutability": "nonpayable",
      "type": "function"
    },
    {
      "constant": false,
      "inputs": [
        {
          "name": "A",
          "type": "address"
        },
        {
          "name": "index",
          "type": "uint256"
        }
      ],
      "name": "payBackDirtyCoins",
      "outputs": [],
      "payable": false,
      "stateMutability": "nonpayable",
      "type": "function"
    }
  ],
  "bytecode": "0x608060405234801561001057600080fd5b50604051602080610cfc8339810180604052602081101561003057600080fd5b81019080805190602001909291905050508060018190555050610ca4806100586000396000f3fe608060405260043610610067576000357c01000000000000000000000000000000000000000000000000000000009004806316eab96b1461006c5780632f0b5c4b14610097578063431a1b97146100f25780638cf400ac1461015e578063f2514c0a14610264575b600080fd5b34801561007857600080fd5b506100816102a8565b6040518082815260200191505060405180910390f35b3480156100a357600080fd5b506100f0600480360360408110156100ba57600080fd5b81019080803573ffffffffffffffffffffffffffffffffffffffff169060200190929190803590602001909291905050506102ae565b005b3480156100fe57600080fd5b506101416004803603602081101561011557600080fd5b81019080803573ffffffffffffffffffffffffffffffffffffffff169060200190929190505050610524565b604051808381526020018281526020019250505060405180910390f35b34801561016a57600080fd5b50610262600480360360a081101561018157600080fd5b81019080803573ffffffffffffffffffffffffffffffffffffffff169060200190929190803590602001906401000000008111156101be57600080fd5b8201836020820111156101d057600080fd5b803590602001918460208302840111640100000000831117156101f257600080fd5b919080806020026020016040519081016040528093929190818152602001838360200280828437600081840152601f19601f820116905080830192505050505050509192919290803560ff1690602001909291908035906020019092919080359060200190929190505050610548565b005b6102a66004803603602081101561027a57600080fd5b81019080803573ffffffffffffffffffffffffffffffffffffffff1690602001909291905050506109f7565b005b60015481565b6000808373ffffffffffffffffffffffffffffffffffffffff1673ffffffffffffffffffffffffffffffffffffffff168152602001908152602001600020600101544211610347576040517f08c379a0000000000000000000000000000000000000000000000000000000008152600401808060200182810382526037815260200180610c1e6037913960400191505060405180910390fd5b3373ffffffffffffffffffffffffffffffffffffffff166000808473ffffffffffffffffffffffffffffffffffffffff1673ffffffffffffffffffffffffffffffffffffffff16815260200190815260200160002060020182815481106103aa57fe5b9060005260206000200160009054906101000a900473ffffffffffffffffffffffffffffffffffffffff1673ffffffffffffffffffffffffffffffffffffffff1614610441576040517f08c379a000000000000000000000000000000000000000000000000000000000815260040180806020018281038252602c815260200180610b94602c913960400191505060405180910390fd5b3373ffffffffffffffffffffffffffffffffffffffff166108fc6001549081150290604051600060405180830381858888f19350505050158015610489573d6000803e3d6000fd5b5060008060008473ffffffffffffffffffffffffffffffffffffffff1673ffffffffffffffffffffffffffffffffffffffff16815260200190815260200160002060020182815481106104d857fe5b9060005260206000200160006101000a81548173ffffffffffffffffffffffffffffffffffffffff021916908373ffffffffffffffffffffffffffffffffffffffff1602179055505050565b60006020528060005260406000206000915090508060000154908060010154905082565b426000808773ffffffffffffffffffffffffffffffffffffffff1673ffffffffffffffffffffffffffffffffffffffff16815260200190815260200160002060010154116105e1576040517f08c379a0000000000000000000000000000000000000000000000000000000008152600401808060200182810382526037815260200180610bc06037913960400191505060405180910390fd5b60008060008773ffffffffffffffffffffffffffffffffffffffff1673ffffffffffffffffffffffffffffffffffffffff16815260200190815260200160002060000154141561067c576040517f08c379a0000000000000000000000000000000000000000000000000000000008152600401808060200182810382526024815260200180610c556024913960400191505060405180910390fd5b83516000808773ffffffffffffffffffffffffffffffffffffffff1673ffffffffffffffffffffffffffffffffffffffff1681526020019081526020016000206000015414610733576040517f08c379a000000000000000000000000000000000000000000000000000000000815260040180806020018281038252601f8152602001807f4e6f7420616c6c207061727469636970616e7473206465706f7369746564210081525060200191505060405180910390fd5b8473ffffffffffffffffffffffffffffffffffffffff166001856040516020018080602001828103825283818151815260200191508051906020019060200280838360005b83811015610793578082015181840152602081019050610778565b50505050905001925050506040516020818303038152906040528051906020012085858560405160008152602001604052604051808581526020018460ff1660ff1681526020018381526020018281526020019450505050506020604051602081039080840390855afa15801561080e573d6000803e3d6000fd5b5050506020604051035173ffffffffffffffffffffffffffffffffffffffff16146108a1576040517f08c379a000000000000000000000000000000000000000000000000000000000815260040180806020018281038252601a8152602001807f5468726573686f6c6420736967206973206e6f742076616c696400000000000081525060200191505060405180910390fd5b60008090505b8451811015610919578481815181106108bc57fe5b602002602001015173ffffffffffffffffffffffffffffffffffffffff166108fc6001549081150290604051600060405180830381858888f1935050505015801561090b573d6000803e3d6000fd5b5080806001019150506108a7565b503373ffffffffffffffffffffffffffffffffffffffff166108fc6001548651026000808973ffffffffffffffffffffffffffffffffffffffff1673ffffffffffffffffffffffffffffffffffffffff16815260200190815260200160002060000154039081150290604051600060405180830381858888f193505050501580156109a8573d6000803e3d6000fd5b5060008060008773ffffffffffffffffffffffffffffffffffffffff1673ffffffffffffffffffffffffffffffffffffffff168152602001908152602001600020600001819055505050505050565b600154341015610a52576040517f08c379a0000000000000000000000000000000000000000000000000000000008152600401808060200182810382526027815260200180610bf76027913960400191505060405180910390fd5b346000808373ffffffffffffffffffffffffffffffffffffffff1673ffffffffffffffffffffffffffffffffffffffff168152602001908152602001600020600001600082825401925050819055506000808273ffffffffffffffffffffffffffffffffffffffff1673ffffffffffffffffffffffffffffffffffffffff1681526020019081526020016000206002013390806001815401808255809150509060018203906000526020600020016000909192909190916101000a81548173ffffffffffffffffffffffffffffffffffffffff021916908373ffffffffffffffffffffffffffffffffffffffff16021790555050610e1042016000808373ffffffffffffffffffffffffffffffffffffffff1673ffffffffffffffffffffffffffffffffffffffff168152602001908152602001600020600101819055505056fe596f7520617265206e6f7420656e7469746c656420746f207265636569766520646972747920636f696e73215061727469636970616e74732073686f756c6420686176652077697468647261776e20636c65616e20636f696e73206561726c69657221596f752073686f756c642073656e64206174206c6561737420616d742077656920657468657221596f752063616e6e6f7420776974686472617720646972747920636f696e73206265666f72652074696d656f757420657870697265732154686973206d6978696e672073657373696f6e20697320616c7265616479206f76657221a165627a7a723058201e8bf666d78a33637486acf83186d345a3b96ae026fa3b02ac2bef2f6ec625a30029",
  "source": "pragma solidity ^0.5.8;\n\ncontract MixerContract {\n\n    mapping(address => MixingSession) public sessions;\n    uint public amt;\n\n    struct MixingSession {\n        uint arrivedAmount;\n        uint timeOut; //time of last depositor deposited + 1 hour\n        address[] senderAddresses;\n    }\n\n    constructor (uint mixedAmt) public {\n        amt = mixedAmt;\n    }\n\n    //Deposit dirty coins in the mixer\n    function sendDirtyCoins(address A) public payable {//A is the DKG address\n        require(msg.value >= amt, \"You should send at least amt wei ether!\");\n        sessions[A].arrivedAmount += msg.value;\n        sessions[A].senderAddresses.push(msg.sender);\n        sessions[A].timeOut = now + 3600;\n\n    }\n\n    //If threshold signing is successful, 1 can issue and send out coins to receivers\n    function payOutCleanCoins(address A, address[] memory P, uint8 v, bytes32 r, bytes32 s) public {\n        require(sessions[A].timeOut > now, \"Participants should have withdrawn clean coins earlier!\");\n        require(sessions[A].arrivedAmount != 0, \"This mixing session is already over!\");\n        require(sessions[A].arrivedAmount == P.length, \"Not all participants deposited!\");\n        require(ecrecover(keccak256(abi.encode(P)), v, r, s)==A, \"Threshold sig is not valid\"); //check whether the payout addresses are signed\n        for(uint i=0; i < P.length; i++) {\n            address(uint160(P[i])).transfer(amt);\n        }\n        msg.sender.transfer(sessions[A].arrivedAmount-P.length*amt); //any surplus is provided to the one who sends the tx\n        sessions[A].arrivedAmount = 0;\n\n    }\n\n    //If threshold signing fails, participants can get back their coins when timeout expires\n    function payBackDirtyCoins(address A, uint index) public {\n        require(now > sessions[A].timeOut, \"You cannot withdraw dirty coins before timeout expires!\");\n        require(sessions[A].senderAddresses[index] == msg.sender, \"You are not entitled to receive dirty coins!\");\n        msg.sender.transfer(amt);\n        sessions[A].senderAddresses[index] = address(0);\n    }\n}",
  "sourcePath": "/Users/seresistvanandras/Desktop/MyArticles/CleanCoin/contracts/MixerContract.sol",
  "compiler": {
    "name": "solc",
    "version": "0.5.8+commit.23d335f2.Emscripten.clang"
  },
  "schemaVersion": "3.0.9",
  "updatedAt": "2019-05-16T19:25:02.184Z",
  "devdoc": {
    "methods": {}
  },
  "userdoc": {
    "methods": {}
  }
}